:020000040800F2
:100000000028002059070008550700085507000878
:1000100055070008550700085507000800000000B4
:10002000000000000000000000000000550700086C
:100030005507000800000000550700085507000894
:100040005507000855070008550700085507000820
:100050005507000855070008550700085507000810
:100060005507000855070008550700085507000800
:1000700055070008550700085507000855070008F0
:1000800055070008550700085507000855070008E0
:1000900055070008550700085507000855070008D0
:1000A00055070008550700085507000855070008C0
:1000B000550700084D0D00085507000855070008B2
:1000C00055070008550700085507000855070008A0
:1000D0005507000855070008550700085507000890
:1000E0005507000855070008550700085507000880
:1000F0005507000855070008550700085507000870
:10010000550700085507000855070008550700085F
:10011000550700085507000855070008550700084F
:10012000550700085507000855070008550700083F
:100130005507000880F0004002E000BF81F0004158
:1001400042001FBF5FEA410392EA030F7FEA226C7D
:100150007FEA236C6AD04FEA1262D2EB1363C1BF0D
:10016000D218414048404140B8BF5B42192B88BF7C
:10017000704710F0004F40F4000020F07F4018BF9F
:10018000404211F0004F41F4000121F07F4118BFBF
:10019000494292EA030F3FD0A2F1010241FA03FC67
:1001A00010EB0C00C3F1200301FA03F100F000434F
:1001B00002D5494260EB4000B0F5000F13D3B0F117
:1001C000807F06D340084FEA310102F10102FE2A86
:1001D00051D2B1F1004F40EBC25008BF20F00100F6
:1001E00040EA03007047490040EB000010F4000FA4
:1001F000A2F10102EDD1B0FA80FCACF1080CB2EB37
:100200000C0200FA0CF0AABF00EBC2505242184395
:10021000BCBFD0401843704792F0000F81F400013A
:1002200006BF80F400000132013BB5E74FEA41030D
:100230007FEA226C18BF7FEA236C21D092EA030F79
:1002400004D092F0000F08BF0846704790EA010FF3
:100250001CBF0020704712F07F4F04D1400028BF20
:1002600040F00040704712F100723CBF00F5000002
:10027000704700F0004343F0FE4040F40000704738
:100280007FEA226216BF08467FEA236301464202E4
:1002900006BF5FEA412390EA010F40F480007047F7
:1002A0004FF0000304E000BF10F0004348BF40429D
:1002B0005FEA000C08BF704743F0964301464FF0D9
:1002C00000001CE050EA010208BF70474FF0000335
:1002D0000AE000BF50EA010208BF704711F0004376
:1002E00002D5404261EB41015FEA010C02BF844646
:1002F0000146002043F0B64308BFA3F18053A3F5A5
:100300000003BCFA8CF2083AA3EBC25310DB01FAEB
:1003100002FC634400FA02FCC2F12002BCF1004F6F
:1003200020FA02F243EB020008BF20F00100704700
:1003300002F1200201FA02FCC2F1200250EA4C0054
:1003400021FA02F243EB020008BF20EADC7070479A
:100350004FF0FF0C1CEAD0521EBF1CEAD15392EAA8
:100360000C0F93EA0C0F6FD01A4480EA010C400284
:1003700018BF5FEA41211ED04FF0006343EA5010DE
:1003800043EA5111A0FB01310CF00040B1F5000F20
:100390003EBF490041EAD3715B0040EA010062F1CF
:1003A0007F02FD2A1DD8B3F1004F40EBC25008BFB9
:1003B00020F00100704790F0000F0CF0004C08BFD7
:1003C00049024CEA502040EA51207F3AC2BFD2F1A4
:1003D000FF0340EAC250704740F400004FF00003B2
:1003E000013A5DDC12F1190FDCBF00F000407047EC
:1003F000C2F10002410021FA02F1C2F1200200FA2A
:1004000002FC5FEA310040F1000053EA4C0308BFF0
:1004100020EADC70704792F0000F00F0004C02BF41
:10042000400010F4000F013AF9D040EA0C0093F0BC
:10043000000F01F0004C02BF490011F4000F013B16
:10044000F9D041EA0C018FE70CEAD15392EA0C0F84
:1004500018BF93EA0C0F0AD030F0004C18BF31F0EF
:10046000004CD8D180EA010000F00040704790F0C5
:10047000000F17BF90F0004F084691F0000F91F069
:10048000004F14D092EA0C0F01D142020FD193EA2F
:100490000C0F03D14B0218BF084608D180EA0100B7
:1004A00000F0004040F0FE4040F40000704740F093
:1004B000FE4040F4400070474FF0FF0C1CEAD05261
:1004C0001EBF1CEAD15392EA0C0F93EA0C0F69D0BD
:1004D000A2EB030280EA010C49024FEA402037D028
:1004E0004FF0805343EA111143EA10130CF000401F
:1004F0008B4238BF5B0042F17D024FF4000C8B420F
:1005000024BF5B1A40EA0C00B3EB510F24BFA3EBEE
:10051000510340EA5C00B3EB910F24BFA3EB9103BE
:1005200040EA9C00B3EBD10F24BFA3EBD10340EA18
:10053000DC001B0118BF5FEA1C1CE0D1FD2A3FF65E
:1005400050AF8B4240EBC25008BF20F00100704713
:100550000CF0004C4CEA50207F32C2BFD2F1FF03B6
:1005600040EAC250704740F400004FF00003013AE7
:1005700037E792F0000F00F0004C02BF400010F48B
:10058000000F013AF9D040EA0C0093F0000F01F09F
:10059000004C02BF490011F4000F013BF9D041EAC1
:1005A0000C0195E70CEAD15392EA0C0F08D14202F4
:1005B0007FF47DAF93EA0C0F7FF470AF084676E7C7
:1005C00093EA0C0F04D14B023FF44CAF08466EE7A0
:1005D00030F0004C18BF31F0004CCAD130F000426E
:1005E0007FF45CAF31F000437FF43CAF5FE700BFC6
:1005F0004FF0FF3C06E000BF4FF0010C02E000BFEF
:100600004FF0010C4DF804CD4FEA40024FEA410390
:100610007FEA226C18BF7FEA236C11D001B052EA46
:10062000530C18BF90EA010F58BFB2EB030088BF0C
:10063000C81738BF6FEAE17018BF40F0010070477B
:100640007FEA226C02D15FEA402C05D17FEA236C5D
:10065000E4D15FEA412CE1D05DF8040B704700BFA4
:10066000844608466146FFE70FB5FFF7C9FF00283B
:1006700048BF10F1000F0FBD4DF808EDFFF7F4FF74
:100680000CBF012000205DF808FB00BF4DF808ED0D
:10069000FFF7EAFF34BF012000205DF808FB00BF30
:1006A0004DF808EDFFF7E0FF94BF012000205DF852
:1006B00008FB00BF4DF808EDFFF7D2FF94BF012003
:1006C00000205DF808FB00BF4DF808EDFFF7C8FFFC
:1006D00034BF012000205DF808FB00BF4FEA400254
:1006E0004FEA41037FEA226C02D15FEA402C08D135
:1006F0007FEA236C02D15FEA412C02D14FF0000067
:1007000070474FF0010070474FEA4002B2F1FE4FD0
:100710000FD34FF09E03B3EB12620DD94FEA0023C3
:1007200043F0004310F0004F23FA02F018BF40429C
:1007300070474FF00000704712F1610F01D1420283
:1007400005D110F0004008BF6FF0004070474FF037
:1007500000007047FEE70000094A0A4B0A498B4235
:1007600006D30021094B0A4A934206D300F002BB8C
:1007700052F8040F43F8040BF1E743F8041BF3E7C6
:10078000B816000800000020D8000020D800002083
:10079000980100202DE9F843044600251D4E1E4F08
:1007A0001C492046FFF786FF70B94FF07E561B4F5D
:1007B000DFF86080DFF8609031462046FFF766FF83
:1007C000A8B92846BDE8F88313492046FFF772FF11
:1007D00030B120463946FFF76FFE05350446DFE7A6
:1007E00020463146FFF768FE01350446D8E7394612
:1007F0002046FFF74BFF30B120464946FFF7A8FDE2
:10080000053D0446D8E720464146FFF7A1FD013DDE
:100810000446D1E7000020410050C347ACC527374C
:1008200070B504464FF07E500F4D104E002C03DC87
:100830000D4D0E4E64B970BD042C04DD3146FFF73A
:1008400087FD053CF2E72946FFF782FD013CEDE715
:10085000231D04DA3146FFF72FFE0534EAE7294667
:10086000FFF72AFE0134E5E7000020410050C347AE
:10087000042370B500240A250A4A13705EB2013BB6
:10088000DBB2FE2B05D10CB1FF23137000234B719B
:1008900070BDB0FBF5F405FB140030308855A0B2F4
:1008A0000124EBE7DE0000202DE9F74F044608465F
:1008B0000D4690469946FFF711FF002840F0B6809C
:1008C000B8F1000F4FF000012846B8BF4FF00608FE
:1008D000FFF7DCFE00287CD04FF02D0A05F1004523
:1008E00025F000465B493046FFF7F8FE30B959491C
:1008F0003046FFF7D5FE002800F0A480B9F1660F5E
:100900006AD1C8F10000FFF78BFF4FF07C51FFF771
:100910001FFD01462846FFF713FC0546FFF73AFF87
:1009200020EAE07608EB06031C2B00F390800027FA
:10093000BAF12D0F02D184F800A001344FF02E0B34
:10094000C8F100083046FFF76BFF014601902846CA
:10095000FFF7B2FDFFF7D8FE8246FFF7A5FC019B2B
:100960000AF1300A1946FFF7F3FC01462846FFF763
:10097000E5FB731C18BF234606F1FF3604BF631C5A
:1009800084F800B04645054603F1010483F800A051
:10099000D8DAB9F1660F17D0002FB4BF2D212B2163
:1009A00083F80190997003F103024FF00A03B8BF76
:1009B0007F4297FBF3F0144600F1300103FB107007
:1009C000303004F8021B50700023237003B0BDE8E0
:1009D000F08F4FF02B0A83E700212846FFF74CFEEB
:1009E000064660BB2846FFF7D5FEA0EB0800FFF7E0
:1009F00017FF4FF07C51FFF7ABFC2946FFF7A0FB38
:100A00000546FFF7C7FE632821DCB8F1190F1EDC8D
:100A10006FF062078742B8BF07463846FFF700FF0E
:100A200001462846FFF748FD054681E70A4B13F8C3
:100A3000012B04F8012B1A78002AF8D1C4E700260C
:100A4000374675E7054B84F800A00134EFE7044B07
:100A5000F9E700BFFFFF7F7F981600089C1600088B
:100A6000A0160008002370B50B6002681378202BD5
:100A70001DD02D2B01BF531C03605378012618BFD6
:100A80000026302B23D10268531C03605378622B5D
:100A900010D0782B13D11025931C03609378002479
:100AA000202B1CD806B164420C60012070BD0132BD
:100AB0000260DAE7931C036093780225EFE7202BAE
:100AC000F3D9A3F13002092A07D9002070BDA3F1A0
:100AD0003002092AF9D80A25E1E70825DFE7602B6B
:100AE00084BF203BDBB2A3F13002D2B2102A03D97B
:100AF000373BDAB2092AE8D9AA42E6D2036804FBF6
:100B000005245A1C02605B78CAE700002DE9F84F03
:100B1000002304460E460B6022681378202B15D064
:100B20002D2B16D14FF00108531C236053782E2B28
:100B300001BF23684FF0FF375A1C22600CBF5B785F
:100B40000027202B0DD80020BDE8F88F013222604D
:100B5000E2E72B2B02BF531C236053784FF00008B1
:100B6000E5E70025DFF8DCA02E2B12D1002FEAD11B
:100B70004FF0FF3723685A1C22605B78202BF3D894
:100B800018F0010F18BF05F1004535600120BDE8E0
:100B9000F88FA3F130095FFA89F9B9F1090F20D86C
:100BA00067B951462846FFF7D3FB05464846FFF78D
:100BB0007BFB2946FFF7C4FA0546DBE73846FFF71B
:100BC0002FFE07F1FF3B07464846FFF76DFB39460E
:100BD000FFF7BEFB01462846FFF7B2FA5F4605461F
:100BE000C8E703F0DF03452BADD12268531C236017
:100BF00053782D2B20D1931C2360937848F0020862
:100C0000202BA0D900200A21303BDBB2092B9AD837
:100C100001FB003023685A1C22605B78202BF3D83C
:100C200018F0020F18BF4042FFF7FAFD01462846B0
:100C3000FFF78EFB0546A3E72B2B02BF931C236017
:100C40009378DDE700002041054A06491378082B18
:100C500041F823008EBF00230133DBB213707047CD
:100C6000F40000204801002000232DE9F0472C4D1E
:100C700080469A4699469E461F461846AC46294CE1
:100C8000294E0132D2B22B702370337018F8035002
:100C9000BDB907B13070B9F1000F01D084F800E0A0
:100CA000BAF1000F01D08CF8003033780BB1013A63
:100CB000D2B200202378C854B2FA82F04009BDE8CD
:100CC000F087202D01D03D2D25D110B3013A12F02F
:100CD000FF021DD13270B9F1000F01D084F800E09D
:100CE000BAF1000F01D08CF8003000222378CA54EA
:100CF000BDE8F0870EF1010701F80E5010465FFACB
:100D000087FE914617460133DBB24FF0010ABDE77B
:100D100001270020F7E7012AECD001273846F2E747
:100D2000DF000020E1000020E0000020002230B5BC
:100D3000D3B2C45C1CB9CD5C0DB9012030BDCB5C15
:100D40000132A342F4D0002030BD0000074A138ACC
:100D5000DB070AD5138A23F001031B041B0C138243
:100D6000034A13880BB1013B138070470004004015
:100D7000D80000201222A14B2DE9F04F1A60A3F5F4
:100D800080535A6885B05A605A6842F480625A604B
:100D90005A685A605A6842F002025A605A6842F42D
:100DA000E0125A605A6842F480325A601A6842F47B
:100DB00080321A601A689503FCD51A6842F0807276
:100DC0001A601A689401FCD55A6802F00C02082ACD
:100DD000FAD100248A498B480A6842F080720A607E
:100DE000894904600A6842F001020A601D224FF03E
:100DF00000719A61854A5160D2F8041C02F50062C4
:100E000021F47061C2F80414D2F8041441F4807122
:100E1000C2F80414D2F8041441F48061C2F8041436
:100E20004FF08061C2F81014516821F00F01516039
:100E3000516841F00401516075494D6825F4700511
:100E40004D604D6845F480154D609D6945F48045C1
:100E50009D61556825F0F0055560556825F470656D
:100E60005560556845F49265556041F64C5502F55C
:100E70004052158142F20C059581DA6942F0020276
:100E8000DA61644A158925F007052D042D0C1581BA
:100E90004725158540F2E73595850125158095890B
:100EA000ADB245F0010595814FF000555A4A1560E5
:100EB0009A6942F400629A61584B1A8922F007023B
:100EC0001204120C1A8123221A851A8B92B242F054
:100ED00001021A831A8B92B242F400721A831A8B9F
:100EE00022F0FC021204120C1A831A8BC2F30902BC
:100EF0001A831A8C22F002021204120C1A841A8C21
:100F000092B242F020021A841A8C92B242F001028C
:100F10001A841A8C92B242F010021A841A8A22F0B1
:100F200002021204120C1A821A8A22F0040212041B
:100F3000120C1A823A4B3B4A1A6004608DE8030097
:100F4000009A11681A689142FAD3374B374C1888C7
:100F5000214600EB800000EB8000800080B2FFF7AC
:100F600087FC0023E3706378314F23702E23B9464A
:100F7000304D6370DFF8DC8098F800300B2B6BD0BD
:100F80000C2B79D00A2B0CD12B4B1A782B4B1B78BE
:100F90009A4206D02A4B1B88180602D50B2388F8E4
:100FA0000030284A13780B2B72D00C2B7BD00A2BE5
:100FB0000DD1234B1988890609D5234998880978CA
:100FC000224B58541B78082B01D00B231370204C54
:100FD00023780A3B0D2B00F2A480DFE813F07B009E
:100FE0009500BC00CD00360141014601A200A200DF
:100FF000A200A20051015901620100BF002002407D
:10100000FCED00E0041000E0001000E000000140F2
:10101000001001400004004000E100E0002C01400D
:10102000EC00002000DD6D00020000203C010020EB
:10103000F6000020F8000020F2000020F40000205C
:1010400000380140F1000020F000002005010020E0
:1010500004000020F3000020AF49B04B0A7853F899
:1010600022301B7833B9082A9CBF531CDBB20B70AB
:101070000A2394E70C2392E7A74BA84A1978A848BB
:1010800052F8213013F8014B848042F82130EFE709
:10109000A34B19880E069AD5A249A3480978415C4A
:1010A00099800C2392E70A239E4913709E4C0B787B
:1010B000E05C082806D00D2807D10020E054087015
:1010C0005A2383E7013B0B7081E71F2B3FF67FAF6D
:1010D0000133F8E70A23954888F80030FFF7B4FD9C
:1010E0009348FFF7B1FD0026DFF85CA2DFF894B269
:1010F000BAF800309E4202DB0B23237011E0584601
:10110000FFF7A2FD0136F3E7834B1978894B1B7873
:10111000994206D10A2313700C2387482370FFF7E6
:1011200093FD3B780B2B00F031810C2B00F062819A
:101130000A2B40F04A81342088F800307F4B1A781F
:101140007F4B00FB0230FFF77FFD7E48FFF77CFD01
:101150000B233B7039E113785A2BE2D10D23237016
:101160000024794EDFF81CA233889C42D9DA50461D
:10117000FFF76AFD0134F7E7AA23DFF8E4A10022B4
:10118000724969488AF80030FFF76EFDDFF8F8B160
:1011900006468BF8000078B96D48FFF755FDDFF87B
:1011A000A8A1DFF8E0B1BAF800309E42A4DA5846B0
:1011B000FFF74AFD0136F6E764496648FFF7B6FDDA
:1011C00008B1152399E706463423F2B203925C4A2C
:1011D0005E4903FB06200293FFF7A8FD029B039ADA
:1011E000E8B18AF800209AF80030AA2B1BD15A489F
:1011F000FFF72AFD5548FFF727FD5848FFF724FD64
:101200000026DFF844A1DFF87CB1BAF800309E4236
:10121000BFF672AF5846FFF717FD0136F5E7013606
:10122000042ED2D1DFE7012248493F48FFF71CFDD9
:101230008BF8000008B10E235FE7404B9AF80020BE
:101240001A700A233B700F2357E7454B1A78454B1A
:101250001A70454B3D4A1A600A232B7010234CE745
:101260003B785A2B7FF45DAF46E72B785A2B7FF4FF
:1012700043AF3B4B1A78314B1A700A233B7050E74F
:101280003A48FFF7E1FC0022354B1A70162334E789
:10129000214B1A78274B1B789A427FF442AF1723D1
:1012A0002BE72F4E3378032B26D84FF0340B3048E2
:1012B000FFF7CAFCDFF888A030780BFB00A0FFF72F
:1012C000C3FC2C48FFF7C0FC30780BFB00A00C30AF
:1012D000FFF7BAFC2848FFF7B7FC33780BFB03A3F2
:1012E00093F82C3033B92548FFF7AEFC337801333F
:1012F0003370CBE72248F7E70B2323700024124E0C
:10130000DFF880A033889C42BFF60BAF5046FFF752
:101310009BFC0134F6E700BFF200002048010020EA
:1013200000380140F000002005010020C41500082D
:101330003C010020F4000020D7150008F500002033
:10134000080000204C160008E40000207001002076
:10135000DC15000804160008091600080F1600081E
:1013600005000020F7000020FC0000201B160008EC
:10137000301600083A160008341600083D1600081A
:10138000461600087A160008040100203421774B25
:10139000774A1B7801FB032393F82C201AB1012A0A
:1013A0001BD0744805E01B6B73491888FFF760FA7F
:1013B0007148FFF749FC0024704EDFF80082338843
:1013C0009C4212DB0C2389F800302B780A3B032B5C
:1013D00043D8DFE803F017819098196B0322452367
:1013E00009686548FFF760FAE2E74046FFF72CFC22
:1013F0000134E4E7624B1A78624B1B789A42E4D1DD
:101400005A23A6E63424604EDFF86481337804FB67
:10141000038393F82C2032B1012A50D05B48FFF7A8
:1014200013FC0C2318E05A4BDFF894A159481B68B1
:1014300051460360FFF716FB68B13378DAF8001005
:1014400004FB0384226B1180484A13700A2389F835
:1014500000300D2300E00B232B704F4B1B78002B2B
:1014600059D04FF00053019A4C4913610B780A2B65
:1014700054D00B2B7FF47EAD494A138ADC077FF5ED
:1014800079AD138A23F001031B041B0C1382138A0A
:10149000580766D5138F908E1B1A42489BB2038063
:1014A000C82003EB0313B3FBF0F33F48038013881A
:1014B00023F001031B041B0C13800A234FE0344A62
:1014C00034481268196B0260FFF720FB0028C2D075
:1014D0003278264B1A70B9E73448FFF7B5FB002481
:1014E000264EDFF8D88033889C429ADA4046FFF7D0
:1014F000ABFB0134F7E7224B1A78224B1B789A4258
:10150000ABD15A23A8E799F800305A2BA5D1002275
:1015100089F80020A0E74FF40053A4E7244A10887C
:1015200000287FF427AD13804FF480634FF42274BA
:10153000204A1361204B1C60009C206000980468C6
:1015400018688442FAD34FF0806313610023144A71
:10155000938413889BB243F0010313800B230B7019
:1015600008E5138A9B073FF505ADA6E7F5000020C7
:10157000080000205016000880010020E400002030
:10158000F2000020F4000020F70000205D160008A3
:10159000FC00002094010020E20000200000002058
:1015A000002C0140DA000020DC0000207D1600083D
:1015B000D8000020000C0140E80000207A16000846
:1015C0004401002057656C636F6D6520746F205077
:1015D00069634F532076000A0D3E20004E6F7468F9
:1015E000696E6720656E74657265642E20456E7441
:1015F0006572202268656C702220666F72206865B3
:101600006C702E0068656C7000766172202200227A
:10161000206E6F7420666F756E6400417661696C30
:1016200061626C65207661726961626C65733A0013
:101630000A0D09003B20747970653A200075696EC7
:101640007431365F7400666C6F617400203D200059
:10165000554E4B4E4F574E5F5459504500556E6B8B
:101660006E6F776E2074797065206F662074686580
:10167000207661726961626C652E0A0D00426164B8
:101680002076616C756520666F72207468652076BF
:1016900061726961626C65004E614E00494E4600A0
:1016A0004F560000F8B500BFF8BC08BC9E46704716
:0C16B000F8B500BFF8BC08BC9E467047AF
:1016BC000A0020000AAA000076657273696F6E003A
:1016CC000000000056657273696F6E206F6620749F
:1016DC006865206669726D776172650000000000B4
:1016EC000000000000000000020000206C65640097
:1016FC0000000000000000004C45442050433133F2
:10170C002073746174653A2031202D204F4E2C20AB
:10171C0030202D204F46460000000000E200002043
:10172C0073656E736F720000000000004375727277
:10173C00656E742076616C7565206F662048432D4C
:10174C00535230342C206D6D00000000000000005E
:10175C00DC000020696E74657276616C000000001C
:10176C00496E74657276616C206265747765656E1E
:10177C0020746865206C696E6573000000000000C1
:08178C0000000000E400002051
:04000005080007598F
:00000001FF
